:020000040800F2
:100000000050002021020008270200082B020008EF
:100010009D020008A1020008E9020008000000009B
:100020000000000000000000000000003103000894
:100030003503000800000000390300081111000812
:100040004D0300084D0300084D0300084D03000850
:100050004D0300084D030008390900085509000840
:10006000710900088D090008A90900084D0300085E
:100070004D0300084D0300084D0300084D03000820
:100080004D0300084D0300084D0300084D03000810
:100090004D0300084D0300084D030008C509000882
:1000A0004D0300084D0300084D0300084D030008F0
:1000B0004D0300084D0300084D0300084D030008E0
:1000C0004D0300084D0300084D0300084D030008D0
:1000D0004D0300084D0300084D0300084D030008C0
:1000E000FD0900084D0300084D0300080000000052
:1000F0000000000000000000000000000000000000
:1001000000000000000000005FF808F100B583B0B7
:1001100000F0AAF9304B314A1360314A1360314B79
:10012000314A32498B4204D21168196004330432D7
:10013000F7E72A4B1A682E4B9A4200D0FEE7284B6D
:100140001A682C4B9A42F9D1234B2B4A13602B4A45
:1001500013602B4B02E000221A600433294A9342B9
:10016000F9D3254B1B6813B9244B1B6803B1FEE779
:1001700000F086F9694601A800F022F9224C234BD1
:10018000E41AA4100025AC4214DC214C214BE41AE3
:10019000A4100025AC4213DC0099019800F0FEFF8A
:1001A00005461D4C1D4BE41AA410002C0EDC2846FD
:1001B00000F0E2F8154B53F8253098470135E2E797
:1001C000144B53F8253098470135E3E7013C134BB6
:1001D00053F824309847E8E7BABADECA0000002096
:1001E00084000020000000200C8D00088800002002
:1001F000785634123254769888000020400200204D
:1002000088000020440200207803000878030008DA
:1002100078030008780300087803000878030008D2
:1002200008B5FFF773FF00BEFEE71EF0040F0CBF1A
:10023000EFF30880EFF309807146414A10472DE93A
:10024000F04182B004468846124B5E6B9F6B9D6AFC
:100250001B6B13F0020F03D00E4BDB6A002B0CDB81
:100260000D4800F0B5F8CDF800803B4632462946EF
:10027000204600F009F900BEFEE74BF6AB6100F046
:100280007DF90028ECD0034B4FF00042DA6202B057
:10029000BDE8F08100ED00E0341C000800BEFEE780
:1002A0001EF0040F0CBFEFF30880EFF309807146D6
:1002B000244A10472DE9F04182B004468846084B95
:1002C0005E6B9F6B9D6A074800F082F8CDF8008056
:1002D0003B4632462946204600F0D6F800BEFEE7EF
:1002E00000ED00E0441C00081EF0040F0CBFEFF30B
:1002F0000880EFF309807146134A10472DE9F04159
:1003000082B004468846084B5E6B9F6B9D6A074827
:1003100000F05EF8CDF800803B4632462946204684
:1003200000F0B2F800BEFEE700ED00E0501C00084F
:1003300000BEFEE700BEFEE700BEFEE7704700001D
:100340003F020008B5020008FD02000800BEFEE7FB
:100350000C8D000800000020880000200C8D000893
:10036000000000000000000088000020440200207F
:08037000000000000000000085
:10037800FEE7000008B503460C4A12685AB10B4A5A
:100388001068033323F003030344094A934206D851
:10039800064A136008BD054A06491160EFE700F0F8
:1003A80087FF0C2303604FF0FF30F3E78C00002039
:1003B800004C00204402002001230360014B0B6025
:1003C800704700BF040000200FB400B583B004AB31
:1003D80053F8042B01938021064800F09BFF002866
:1003E80003DD0146034800F037F803B05DF804EB7D
:1003F80004B07047940000202DE9F04385B004460E
:100408000F4643560BB10E461EE0042528462146EA
:10041800ABBE0446384605B0BDE8F08314F9011BAD
:1004280004AA1A4402F8101C0133AB42F6D304AAFA
:100438001344002203F8102C4FF00408E946404604
:100448004946ABBE8046761B002EE3D03546102EBB
:1004580028BF10250023E8E708B5FFF7CDFF08BD42
:1004680008B500F0FDF8024A024B9A6008BD00BFCB
:100478000000000800ED00E008B500F019F908BD1B
:10048800F8B504460D4617461E462748FFF79CFF59
:1004980021682648FFF798FF61682548FFF794FF11
:1004A800A1682448FFF790FFE1682348FFF78CFF15
:1004B80021692248FFF788FF61692148FFF784FF17
:1004C800A1692048FFF780FFE1691F48FFF77CFF1B
:1004D8001E48FFF779FF29461D48FFF775FF1D4C99
:1004E800E16A1D48FFF770FF216B1C48FFF76CFF9E
:1004F800E16B1B48FFF768FF15F0800F0AD115F470
:10050800004F0CD11748FFF75FFF06991648FFF711
:100518005BFFF8BD39461548FFF756FFEFE7314650
:100528001348FFF751FFEDE7181B0008281B0008C8
:10053800381B0008481B0008581B0008681B0008E7
:10054800781B0008881B0008981B0008A81B0008D7
:10055800B41B000800ED00E0C41B0008D41B000811
:10056800E41B0008141C00081C1C0008F41B0008ED
:10057800041C000883691A888A4201D00020704749
:100588000268033A012A03D80233836101207047C5
:100598000020704782B00023019300932C4A13680F
:1005A80043F4803313602A4B1B6803F40033009331
:1005B800019B01330193009B1BB9019BB3F5A06F0D
:1005C800F1D1234B1B6813F4003F06D0012300939D
:1005D800009B012B04D002B0704700230093F7E77B
:1005E8001C4B1A6842F010021A601A6822F00302C3
:1005F8001A601A6842F002021A60A3F580535A681A
:100608005A605A685A605A6842F480625A605A6856
:1006180022F47C125A605A6842F4E8125A601A6846
:1006280042F080721A600A4B1B6813F0007FFAD000
:10063800074B5A6822F003025A605A6842F00202D5
:100648005A60034B5B6803F00C03082BF9D1C2E72F
:10065800001002400020024008B5FFF79BFF08BDCC
:1006680008B5104B1A6842F001021A6059680E4A20
:100678000A405A601A6822F0847222F480321A60A2
:100688001A6822F480221A605A6822F4FE025A601C
:100698004FF41F029A60FFF7DFFF044B4FF0006230
:1006A8009A6008BD001002400000FFF800ED00E06D
:1006B8001F4B5B6803F00C03042B15D0082B17D0D5
:1006C8001BB11C4B1C4A1A6002E01A4B1A4A1A60EA
:1006D800174B5B68C3F30313184AD35CDAB21549A6
:1006E8000B68D3400B607047124B134A1A60EFE750
:1006F8000F4A53685268C3F38343023312F4803FAE
:100708000AD00B4A526812F4003F0BD00C4A02FB85
:1007180003F3084A1360DBE7094A02FB03F3054ABF
:100728001360D5E7044A02FB03F3024A1360CFE7DC
:10073800001002401C00002000127A000C0000206B
:1007480000093D000F280FD810B4830800F00300FB
:100758008000064C023354F8232001FA00F01043BD
:1007680044F8230010BC7047704700BF00000140E8
:1007780038B5324C23889BB2314D2A68D25C02F0DE
:1007880001020C21012000F017FA23889BB22A6885
:10079800D25CC2F340020D21012000F00DFA23883B
:1007A8009BB22A68D25CC2F380020E21012000F0BD
:1007B80003FA23889BB22A68D25CC2F3C0020F21D5
:1007C800012000F0F9F923889BB22A68D25CC2F3B1
:1007D80000120921002000F0EFF923889BB22A6853
:1007E800D25CC2F340120A21002000F0E5F9238808
:1007F8009BB22A68D25CC2F380120B21002000F061
:10080800DBF923889BB22A68D25CD2090C2100202C
:1008180000F0D2F9238801339BB22380228892B258
:10082800084B1B889BB29A4200D038BD00F058FC98
:10083800002323802B60034A1380F6E71A01002067
:10084800140100201801002008B502220C21012003
:1008580000F0ECF802220D21012000F0E7F8022256
:100868000E21012000F0E2F802220F21012000F001
:10087800DDF802220921002000F0D8F802220A211E
:10088800002000F0D3F802220B21002000F0CEF85F
:1008980002220C21002000F0C9F800F0F7FB08BD87
:1008A80008B50A4B1B6803B108BD094B1B889BB2EE
:1008B800002BF9D118B1054B1860054B1980054973
:1008C8000548B0FBF2F000F0E7FBEDE7140100206B
:1008D800180100207907000840420F00024AD36837
:1008E80043F40063D36070470004014003490B6878
:1008F800012202FA00F003430B6070470004014034
:10090800034B5B6923FA00F000F00100704700BF59
:1009180000040140012303FA00F0014B58617047BD
:1009280000040140014B43F8201070471C010020CF
:1009380008B50020FFF7EEFF034B1B6813B1024B0D
:100948001B68984708BD00BF1C01002008B501209E
:10095800FFF7E0FF034B5B6813B1024B5B689847F6
:1009680008BD00BF1C01002008B50220FFF7D2FF18
:10097800034B9B6813B1024B9B68984708BD00BFA7
:100988001C01002008B50320FFF7C4FF034BDB68F8
:1009980013B1024BDB68984708BD00BF1C0100205B
:1009A80008B50420FFF7B6FF034B1B6913B1024BD0
:1009B8001B69984708BD00BF1C01002010B505241D
:1009C80001E00134E4B2092C11D82046FFF798FF62
:1009D8000028F6D02046FFF79DFF054B53F824303A
:1009E800002BEED0024B53F824309847E9E710BDAE
:1009F8001C01002010B50A2401E00134E4B20F2CD8
:100A080011D82046FFF77CFF0028F6D02046FFF7D4
:100A180081FF054B53F82430002BEED0024B53F8DE
:100A280024309847E9E710BD1C01002010B40128C4
:100A38003DD018B1022873D010BC7047A2F1100342
:100A4800DBB2012B16D90F298CBF0023012313EA2F
:100A5800D1031ED04F4C236801F0070080000F21FE
:100A6800814023EA01032360236802FA00F0184357
:100A78002060E1E7484B186801248C4020EA040014
:100A88001860186802F001048C402043186052086E
:100A9800D9E7424C236889000F20884023EA0003E5
:100AA8002360206802FA01F101432160C4E7A2F142
:100AB8001003DBB2012B16D90F298CBF00230123A9
:100AC80013EAD1031ED03648046801F007039B00DF
:100AD8000F21994024EA01010160016802FA03F339
:100AE8000B430360A8E72F4B186801248C4020EAC9
:100AF80004001860186802F001048C402043186054
:100B08005208D9E7284C236889000F20884023EA37
:100B180000032360206802FA01F1014321608BE79A
:100B2800A2F11003DBB2012B14D90F298CBF0023CB
:100B3800012313EAD1031CD11C4B186889000F2428
:100B48008C4020EA04001860186802FA01F1014399
:100B5800196071E7164B186801248C4020EA0400DC
:100B68001860186802F001048C402043186052088D
:100B7800DBE7104C236801F0070189000F2088404B
:100B880023EA00032360206802FA01F1014321608F
:100B980052E700BF040801400C080140000801406A
:100BA800040C01400C0C0140000C014000100140F5
:100BB8000C10014004100140012813D010B1022884
:100BC8001FD0704712B1012A06D07047012303FADB
:100BD80001F1134B19607047012303FA01F1114B1E
:100BE800196070473AB1012AEFD1012303FA01F1E4
:100BF8000D4B19607047012303FA01F10B4B196083
:100C080070473AB1012AE0D1012303FA01F1084BF8
:100C18001960DAE7012303FA01F1064B19607047FE
:100C28001408014010080140100C0140140C014048
:100C3800101001401410014008B5174B1B781BB168
:100C4800164B00221A7008BD00F056FA13490B78AB
:100C5800DBB280B2124A22F813000B78DBB232F80A
:100C680013309BB243F2C722934209D90A460B7844
:100C7800DBB20B4931F813309BB20B8000231370A1
:100C8800064A13780133DBB21370064943F69820FD
:100C980000F01CFAD7E700BF290200202802002034
:100CA800C4010020B10C000808B5194B1B783BB3F0
:100CB800112301E00133DBB2182B11D8154A32F8A1
:100CC800132092B2B2F5FA6FF4D3A3F11101012205
:100CD80002FA01F1104802780A43D2B20270E9E739
:100CE8000E490B78DBB25A1CD2B20A700A490A784C
:100CF800D2B20B48C25400230B70054A137008BDCA
:100D08000849094800F0E2F9014B01221A70F6E798
:100D18005C010020C4010020290200205D010020A0
:100D280060010020B10C000890D0030008B504222F
:100D38000B210120FFF77AFE01210B20FFF702FDAE
:100D480007490B20FFF7EEFDFFF7C8FD0B20FFF763
:100D5800CDFD282000F04CF900F098F908BD00BF3F
:100D6800410C00080D4B1B7803F0FF0013B110B4C1
:100D7800002206E07047511C084C635CDBB2A354A8
:100D8800CAB2074B1B78DBB29342F4D8044A1378F3
:100D9800013BDBB2137010BC704700BF600100203C
:100DA8005D01002008B5012200211046FFF704FF6D
:100DB800012211461046FFF7FFFE012205211046C9
:100DC800FFF7FAFE012206211046FFF7F5FE012281
:100DD80007211046FFF7F0FE012208211046FFF711
:100DE800EBFE012209211046FFF7E6FE01220A2147
:100DF8001046FFF7E1FE08BD08B5022200210846AB
:100E0800FFF714FE022201210020FFF70FFE022245
:100E180011460020FFF70AFE022203210020FFF7F7
:100E280005FE022204210020FFF700FE0222052110
:100E38000020FFF7FBFD022206210020FFF7F6FD48
:100E4800022207210020FFF7F1FD022200210120E4
:100E5800FFF7ECFD022201210846FFF7E7FD022219
:100E680005210120FFF7E2FD022206210120FFF7FC
:100E7800DDFD022207210120FFF7D8FD022208210B
:100E88000120FFF7D3FD022209210120FFF7CEFD43
:100E980002220A210120FFF7C9FDFFF783FF00F0B6
:100EA8004FF908BD10B5044600F0010200210846BC
:100EB800FFF782FEC4F3400201210020FFF77CFE09
:100EC800C4F3800202210020FFF776FEC4F3C002BB
:100ED80003210020FFF770FEC4F300120421002054
:100EE800FFF76AFEC4F3401205210020FFF764FEF5
:100EF800C4F3801206210020FFF75EFEE2090721F5
:100F08000020FFF759FE10BD10B50C46405CFFF7F6
:100F1800C9FF072C0AD8DFE804F00410161C2228A1
:100F28002E34002211460120FFF746FE4FF4FA60E6
:100F380000F00DF9FFF736FF10BD00220121084629
:100F4800FFF73AFEF2E7002205210120FFF734FE01
:100F5800ECE7002206210120FFF72EFEE6E700223B
:100F680007210120FFF728FEE0E7002208210120E1
:100F7800FFF722FEDAE7002209210120FFF71CFE15
:100F8800D4E700220A210120FFF716FECEE738B584
:100F98000546002105E04C1CE4B22846FFF7B4FFE3
:100FA80021460729F7D938BD70B582B006460C46E8
:100FB80015460023ADF806300093BDF80630083317
:100FC8009C4213DB009B01330093BDF806003044BC
:100FD800FFF7DDFF009BAB42EFD100230093BDF884
:100FE800063001339BB2ADF80630E6E702B070BDBB
:100FF8001F2809D93B2806D800F01F00012303FA4F
:1010080000F0044B18607047012303FA00F0024B0C
:101018001860704704E100E000E100E0054B064A73
:101028001A60044B1B6813F4003FFAD0034B0122EB
:101038001A6070470010024080000100041002404E
:101048001F291CD801280BD010B1022810D07047D6
:101058000B480368012202FA01F119430160704745
:1010680008480368012202FA01F119430160704738
:1010780005480368012202FA01F11943016070472B
:10108800141002401C10024018100240014B0022AC
:101098001A60704710E000E00123084A1370084AFC
:1010A8001160084A1370084B00221A609A6020F0F9
:1010B8007F40586003221A60704700BF300200204A
:1010C8002C0200202A02002010E000E008B5FFF7FB
:1010D800E3FF024B00221A7008BD00BF2A0200205D
:1010E800034A0023136053609360024A13707047E9
:1010F80010E000E030020020024B58689B68C01ADC
:10110800704700BF10E000E000B583B0094B1B68D2
:10111800DBB28DF80730084B1B7843B1074B1B68CF
:1011280013B1064B1B68984703B05DF804FBFFF743
:10113800D7FFF3E710E000E02A0200202C0200208D
:101148004FF0804300221A6007229A6270474FF0DE
:1011580080431A6822F002021A601A6822F080029C
:101168001A60D8621A6842F001021A604FF0804390
:101178001B6913F0010FF9D04FF080431A6922F070
:1011880001021A610022DA621A6822F001021A606A
:101198007047000000B5A7B0404C1DAD26460FCEE5
:1011A8000FC50FCE0FC533682B6015AD04F12406AB
:1011B8000FCE0FC596E80F0085E80F000AAD04F1C1
:1011C80044060FCE0FC50FCE0FC596E8070003C51E
:1011D8002A706D4670340FCC0FC50FCC0FC594E83C
:1011E800030085E80300FFF719FF02210846FFF70F
:1011F80027FF03210220FFF723FF00210220FFF72A
:101208001FFF00210120FFF71BFFFFF78FFDFFF7EE
:101218001BFBFFF7F1FD11E0462832D047280DD11E
:101228004FF4FA524FF4FF511D48FFF739FB0522DE
:1012380029210AA8FFF7B8FE00E000BFFFF792FDDA
:10124800452811D0E8D80028F7D04428F6D14FF423
:10125800FA5241F2A8611348FFF722FB0522282120
:101268006846FFF7A1FEE9E74FF4FA5241F6B87174
:101278000D48FFF715FB052224211DA8FFF794FE52
:10128800DCE74FF4FA524FF4CD510848FFF708FB5A
:101298000522202115A8FFF787FECFE7601C00086C
:1012A8005056000830760008F81C0008B03C0008CA
:1012B800014B1868704700BF2000002030B5141E8D
:1012C80005469BB0184605DA8B234FF0FF302B609C
:1012D8001BB030BD4FF40273ADF80C300CBF234681
:1012E80004F1FF33029305934FF6FF7300910491C5
:1012F800ADF80E3002461E9B6946284600F072F88B
:10130800431CBCBF8B232B60002CE1D00022009B28
:101318001A70DDE707B5009313460A4601460348ED
:101328000068FFF7CBFF03B05DF804FB2000002046
:101338002DE9F0478E6882469E420C4690469946B3
:1013480037D88A8912F4906F31D002232568096949
:101358006F1A656905EB450595FBF3F509F101037E
:101368003B449D4238BF1D46530530D5294600F001
:1013780035FB064650B90C234FF0FF30CAF8003051
:10138800A38943F04003A381BDE8F0873A46216969
:1013980000F0B4FAA38923F4906343F08003A38197
:1013A80026613E4426604E466561ED1BA5604E45AC
:1013B80000D94E4632464146206800F0AAFAA36892
:1013C80000209B1BA36023681E442660DCE72A4696
:1013D80000F05EFB06460028E2D12169504600F085
:1013E800B1FAC8E72DE9F04F9DB003938B89804689
:1013F8001D060C4616460FD50B696BB9402100F047
:10140800EDFA2060206128B90C23C8F800304FF0AD
:10141800FF30C7E0402363610023099320238DF840
:10142800293030234FF0010B8DF82A3037463D46DE
:1014380015F8013B0BB1252B3ED1B7EB060A0BD0B3
:101448005346324621464046FFF772FF013000F00E
:10145800A480099B534409933B78002B00F09D809E
:1014680000234FF0FF32CDE90523049307938DF84D
:1014780053301A932F46052217F8011B4F4800F0E6
:101488002FFA049BD0B9D90644BF20228DF85320E7
:101498001A0744BF2B228DF853202A782A2A15D000
:1014A8002F4600200A25079A394611F8013B303BA0
:1014B800092B4DD9B8B10FE02F46B8E73F4A3D4652
:1014C800801A0BFA00F018430490D3E7039A111D11
:1014D80012680391002A01DB079204E0524243F0AC
:1014E8000203079204933B782E2B0CD17B782A2B8E
:1014F80033D1039B02371A1D1B680392002BB8BF18
:101508004FF0FF3305932E4D03223978284600F01B
:10151800E7F938B14023401B03FA00F0049B013778
:10152800034304933978062226487E1C8DF8281038
:1015380000F0D6F9002838D0234B13BB039B0733A0
:1015480023F0070308330393099B4B4409936DE782
:1015580005FB023201200F46A6E700230A2519469B
:1015680001370593384610F8012B303A092A03D978
:10157800002BC8D00591C6E705FB012101230746CA
:10158800F0E703AB00932246104B04A94046AFF3A3
:101598000080B0F1FF3F8146D6D1A3895B063FF5B5
:1015A80036AF09981DB0BDE8F08F03AB0093224613
:1015B800064B04A9404600F081F8EAE7D88C0008F9
:1015C800DE8C0008E28C00080000000039130008D7
:1015D8002DE9F04791461F468A680B6906469342F3
:1015E800B8BF1346C9F8003091F843200C46DDF81F
:1015F800208012B10133C9F800302368990642BF30
:10160800D9F800300233C9F80030256815F006050E
:1016180007D104F1190AE368D9F800209B1AAB42F4
:1016280029DC94F843302268003318BF012392065E
:101638002ED404F1430239463046C047013021D048
:101648002368E56803F00603042B18BF0025D9F8C2
:1016580000204FF0000908BFAD1AA368226908BF2F
:1016680025EAE5759342C4BF9B1AED181A344D4517
:101678001AD1002008E00123524639463046C047B7
:10168800013003D14FF0FF30BDE8F0870135C2E7E4
:101698003020E11881F843005A1C94F84510224480
:1016A800023382F84310C4E7012322463946304604
:1016B800C0470130E6D009F10109D8E72DE9F04328
:1016C80001F1430C0C46097E85B06E291746064683
:1016D80098460C9A00F0B38022D8632936D00AD8ED
:1016E800002900F0B980582900F0838004F14205F0
:1016F80084F8421032E0642901D06929F6D12068C3
:101708001368050603F104012AD51B681160002B34
:1017180003DA2D225B4284F843206F480A2239E01D
:10172800732900F09D8008D86F2920D07029DDD159
:10173800236843F02003236003E0752917D0782934
:10174800D4D17823654884F8453055E0136804F10E
:101758004205191D1B68116084F8423001238CE092
:101768001B6810F0400F116018BF1BB2CFE7136859
:101778002568181D1060280601D51B6802E0680658
:10178800FBD51B886F2914BF0A2208225248002162
:1017980084F843106568002DA560C0F29580216823
:1017A80021F004012160002B3DD1002D40F08E80F6
:1017B8006546082A0BD12368DB0708D523696268C8
:1017C8009A42DEBF302305F8013C05F1FF35ACEB4A
:1017D80005032361CDF800803B4603AA2146304625
:1017E800FFF7F6FE01304DD14FF0FF3005B0BDE8F0
:1017F800F083394884F84510136821681D1D1B685B
:1018080015600A060BD5CA0744BF41F020012160C4
:101818001BB9226822F0200222601022B7E74D0689
:1018280048BF9BB2EFE76546B3FBF2F102FB113309
:10183800C35C05F8013D0B460029F5D1B9E71368EB
:101848002568181D6169106028061B6801D5196094
:1018580002E06A06FBD51980002365462361B9E7D3
:101868001368191D11601D6862680021284600F080
:1018780037F808B1401B606063682361002384F86F
:101888004330A7E723692A4639463046C047013026
:10189800AAD023689B0713D4E068039B9842B8BF7B
:1018A8001846A3E701234A4639463046C047013067
:1018B8009AD00135E368039A9B1AAB42F2DCEBE756
:1018C800002504F11909F5E7002BACD1037804F1E0
:1018D800420584F842306CE7E98C0008FA8C00086D
:1018E80010B5C9B202449042034601D1002303E077
:1018F8001C7801308C42F6D1184610BD10B5431E35
:101908000A44914200D110BD11F8014B03F8014F70
:10191800F7E7884210B501EB020307D8421E994247
:101928000AD011F8014B02F8014FF8E78342F5D9C4
:101938008118D21AD34200D110BD13F8014D01F815
:10194800014DF7E738B50546002943D051F8043C66
:101958000C1F002BB8BFE41800F0D0F81E4A13681B
:10196800104633B9636014602846BDE8384000F07B
:10197800C6B8A3420BD921686218934201BF1A68FE
:101988005B685218226063600460EDE713465A688A
:101998000AB1A242FAD919685818A0420BD1206896
:1019A8000144581882421960DED110685268014417
:1019B80019605A60D8E702D90C232B60D4E7206855
:1019C80021188A4201BF11685268091821606260B3
:1019D8005C60C9E738BD00BF3402002070B5CD1C7B
:1019E80025F0030508350C2D38BF0C25002D0646BB
:1019F80001DBA94203D90C233360002070BD00F03D
:101A08007DF8214A1468214691B9204C23681BB9F6
:101A1800304600F063F820602946304600F05EF852
:101A2800431C24D10C233046336000F068F8E4E707
:101A38000B685B1B18D40B2B0FD90B60CC18CD503F
:101A4800304600F05CF804F10B00231D20F007007D
:101A5800C31AD3D05A42E250D0E74B688C4216BF23
:101A6800636013600C46EBE70C464968CCE7C41C7E
:101A780024F00304A04205D0211A304600F02EF8C5
:101A88000130CFD02560DBE7340200203802002087
:101A9800F8B5074614460E4621B9BDE8F840114688
:101AA800FFF79CBF22B9FFF74DFF25462846F8BD32
:101AB80000F026F8A0420FD221463846FFF78EFFE5
:101AC80005460028F2D031462246FFF717FF314677
:101AD8003846FFF737FFE9E73546E7E738B500232B
:101AE800054C054608462360FEF744FC431C02D11A
:101AF800236803B12B6038BD3C0200207047704753
:101B080051F8043C181F002BBCBF0B58C018704775
:101B1800537461636B206672616D653A0A00000058
:101B2800205230203D2020253038580A000000007F
:101B3800205231203D2020253038580A000000006E
:101B4800205232203D2020253038580A000000005D
:101B5800205233203D2020253038580A000000004C
:101B680020523132203D20253038580A000000002C
:101B7800204C52203D2020253038580A0000000013
:101B8800205043203D2020253038580A000000000E
:101B980020505352203D20253038580A00000000BC
:101BA8004653522F4641523A0A00000020434653FA
:101BB80052203D2020253038580A0000204846533E
:101BC80052203D2020253038580A00002044465332
:101BD80052203D2020253038580A00002041465325
:101BE80052203D2020253038580A0000204D4D460F
:101BF8004152203D20253038580A000020424641F5
:101C080052203D2020253038580A00004D69736362
:101C18000A000000204C522F4558435F5245545546
:101C2800524E3D20253038580A0000005B4861724A
:101C3800644661756C745D0A000000005B42757350
:101C48004661756C745D0A005B5573616765466132
:101C5800756C745D0A0000000000000000000000C0
:101C6800007C107C00785858007C40007C40003094
:101C7800484830000000000000000000000000009C
:101C880000000000007C107C00785858007C400060
:101C98007818180000000000000000000000000094
:101CA80000000000007C107C0078407800781070FC
:101CB800005878007810080058507800000000009C
:101CC800000000000000000000000000000000000C
:101CD800003C4070403C003048487040087C480058
:101CE8007858580078100800000000000000000034
:101CF800807F807F807F80807F80807F80808080E1
:101D0800808080808080808080807F807F808080CD
:101D180080807F7F807F807F7F7F7F807F807F80C4
:101D28007F808080807F80807F80808080808080AE
:101D380080808080807F7F7F7F7F7F7F7F7F7F7FA6
:101D48007F7F7F7F7F7F7F808080808080807F8093
:101D5800808080808080808080808080808080807B
:101D68008080808080808080808080808080807F6C
:101D78007F7F7F7F7F7F7F7F7F7F7F7F7F7F7F7F6B
:101D8800807F8080808080807F808080808080804D
:101D980080808080808080808080808080807F7F3D
:101DA8007F7F7F7F7F7F7F7F7F7F7F7F7F7F7F7F3B
:101DB8007F7F7F7F80807F80808080808080808020
:101DC80080807F807F80807F807F80807F807F7F12
:101DD8007F7F807F7F807F7F7F807F7F7F7F7F7F08
:101DE8007F7F7F7F7F7F80807F80808080808080F2
:101DF80080808080808080808080808080808080DB
:101E080080808080808080808080808080808080CA
:101E1800808080807F7F7F7F7F7F7F7F7F7F7F7FC6
:101E28007F7F7F7F7F7F7F7F7F80808080808080B3
:101E3800808080808080808080808080808080809A
:101E480080808080807F7F7F7F7F7F7F7F7F7F7F95
:101E58007F7F7F7F7F7F7F7F7F7F7F7F7F7F7F7F8A
:101E68007F7F80808080808080808080808080806C
:101E78008080808080808080808080808080807F5B
:101E8800807F7F7F7F7F7F7F7F7F7F7F7F7F7F7F59
:101E98007F7F7F7F807F7F7F7F7F7F807F807F7F47
:101EA8007F7F7F7F7F7F7F7F7F7F7F7F7F7F7F7F3A
:101EB8007F7F7F808080808080808080808080801D
:101EC800808080808080808080808080808080800A
:101ED80080808080807F7F7F7F7F7F7F7F7F7F7F05
:101EE8007F7F7F7F7F7F7F7F7F7F7F7F7F7F7F7FFA
:101EF8007F7F7F7F7F8080808080808080808080DF
:101F08008080807F807F807F7F7F7F7F7F7F7F7FD4
:101F18007F7F7F7F7F7F7F7F7F7F807F80808080C4
:101F280080808080808080808080808080808080A9
:101F3800808080808080808080807F807F807F809C
:101F4800808080807F7F7F7F7F7F7F7F7F7F7F7F95
:101F58007F7F7F7F7F7F7F7F7F7F7F807F80808085
:101F68008080808080808080808080808080808069
:101F7800808080808080808080807F7F7F7F7F7F5F
:101F88007F7F7F7F7F7F7F7F7F7F7F7F7F7F7F7F59
:101F98007F7F7F7F7F7F7F7F7F7F7F7F807F807F47
:101FA800807F807F807F80808080807F807F807F2F
:101FB80080807F807F807F807F807F80807F80801F
:101FC80080807F808080808080808080808080800A
:101FD8008080808080808080808080808080807FFA
:101FE8007F7F7F7F7F7F7F7F7F7F7F7F7F7F7F7FF9
:101FF8007F7F7F7F7F7F80808080808080808080DF
:1020080080808080808080808080808080808080C8
:10201800808080807F7F7F7F7F7F7F7F7F7F7F7FC4
:102028007F7F7F7F7F7F7F7F7F7F7F7F7F7F7F7FB8
:10203800807F808080808080808080808080808099
:102048008080808080808080808080808080807F89
:102058007F7F7F7F7F7F7F7F7F7F7F7F7F7F7F7F88
:102068007F7F7F7F7F7F7F7F808080808080808070
:102078008080808080808080808080808080808058
:102088008080807F807F7F7F7F7F7F7F7F7F7F7F54
:102098007F7F7F7F7F7F7F7F7F7F7F7F7F7F808046
:1020A8008080808080808080808080808080808028
:1020B800808080808080808080807F7F7F7F7F7F1E
:1020C8007F7F7F7F7F7F7F7F7F7F7F7F7F7F7F7F18
:1020D8007F7F7F7F7F7F807F7F8080808080808000
:1020E80080807F807F807F807F7F7F7F7F7F7F7FF3
:1020F800807F7F7F7F7F80808080808080808080DD
:1021080080808080808080808080808080808080C7
:10211800808080808080807F7F807F7F7F7F7F7FBF
:102128007F7F7F7F7F7F7F7F7F7F7F7F7F7F7F7FB7
:102138007F7F7F807F80808080807F80808080809C
:102148008080807F807F807F807F8080807F80808C
:102158008080808080808080808080808080808077
:102168008080808080808080808080808080808067
:102178008080808080808080808080808080808057
:10218800808080808080808080807F80807F807F4A
:102198007F7F7F7F7F7F7F7F7F7F7F7F7F7F7F7F47
:1021A8007F7F7F7F7F7F7F7F7F7F7F7F7F7F7F7F37
:1021B800807F7F80807F807F80807F80808080801C
:1021C8008080808080808080808080808080808007
:1021D80080808080808080808080808080808080F7
:1021E8007F807F7F807F807F807F80807F807F80EF
:1021F8007F7F807F8080807F807F807F7F7F7F7FE1
:102208007F7F7F7F7F7F7F7F807F7F7F807F807FD3
:1022180080807F808080808080807F7F7F807F7FBC
:10222800807F7F807F7F7F7F7F7F7F7F7F7F7F7FB4
:1022380080807F7F80807F808080807F8080807F9B
:1022480080807F807F7F7F7F7F7F7F7F7F7F7F7F93
:102258007F7F7F7F7F7F7F8080808080808080807D
:102268007F807F808080807F807F80807F7F7F7F6E
:102278007F7F807F7F7F7F7F7F7F7F7F7F7F7F7F65
:102288007F807F7F807F80807F80807F80807F804D
:10229800808080807F80807F807F7F7F807F7F803D
:1022A8007F7F807F7F807F80807F7F80807F807F2F
:1022B8007F80807F80807F807F80807F80807F801C
:1022C800807F807F80807F81807F807F7F807F800C
:1022D8007F80807F80807F807F7F807F7F807F7FFF
:1022E80080807E807F7F807F807F80817F808080EC
:1022F800807F808080807F80807F807F7F807F7FDD
:10230800807F7F7F7F7F7F807F7F7F80807F8180CE
:102318007F81817F81817F80807F7F817F80807FB7
:10232800807F7F7F807F7F7F80807F80807F7F80AE
:102338007F80807F807F7F8081807F817F807F7F9B
:10234800807F7F7F807F7F7F7F807F80807F80808E
:102358007F7F7F7F807F7F807F7F807F808081817C
:102368007E81817F8080807F7F807E807F7E817E6E
:102378007F807D807F7E807F7E7F807F7F807E8163
:10238800807E80817F81817F81807F7F7F7F808049
:10239800807F807F7F807F7F807F7F7F7F807E8040
:1023A8007F7F807E7E807F7F807F807F82827E812C
:1023B8008280807F81817F80807F807E807F7E8019
:1023C8007E7E7E7F807F7E807F807E7F81807F8112
:1023D80081808081858181838281818081807F81E4
:1023E8007F7E7E7F7D7D7E7C7D7D7C7E7D7D7F7D0D
:1023F8007E7F7E7F80807F818282828386838385C1
:1024080084838382828280807F7E7F7D7C7D7C7BCB
:102418007A7B7D7A7B7D7C7C7D7E7E807F808181DE
:10242800828283858786878787868485848283805E
:10243800807E7D7C797A797978787977787A7A7CF0
:102448007D7E7F80818183848485858686878B8A4B
:102458008C8C8B8A8784837F7C7A7776747373728B
:10246800727274747677787A7C7D80828487888AA1
:102478008B8C8C8D8C8D8D90969698989591898162
:102488007A736C67646262626567686C6F70737692
:102498007A7D7E8387888A8E908F9192939190918E
:1024A8008F8D8E949392918D89807A756D6A666608
:1024B80066646868686B6C6E707276787C808286F9
:1024C800888B8E909393949595959592938F929AE5
:1024D800999D97918C7F756C625E595759595C5FCD
:1024E80060616465696E737A7F848A8F93979A9D19
:1024F8009FA1A2A29F9D9B9794908D8A8F91929164
:102508008A857C736A615A5552515256595D616683
:102518006A6F74797E8186898D9194989A9E9FA01E
:10252800A19F9D9996938E8B888684898D908F899B
:10253800847B7168605A565457595D6165696C6E41
:102548007275787D7F83878B8F9295999B9D9E9ED0
:102558009E9B9894908D8B89868483898E93938C87
:10256800867B72695F5A545254575D6266696C7013
:1025780073777A7D8184898B909395999A9D9D9D97
:102588009B9995918D8A86858281817F888F969681
:102598008D877B73695E585355575C61666B6C6FAA
:1025A800717377787C7F82878A8E9294989A9C9EA2
:1025B8009C9B9895928D898683838180807E8A935F
:1025C8009C9D8F88797065585351545B5F666A6D1E
:1025D8006D6C6E6F74787D82868B8F9296989B9CBB
:1025E8009E9E9D9B98958F8B8784838280807D811A
:1025F80090979D9184796C65574F4E51595D6469E8
:102608006D6E6D6D6F73797E83888C9194989A9DA9
:10261800A0A0A1A19E9C96928C87837F7E7D7C7BC7
:102628007A778591999683796C655C5050535C6490
:10263800686E7072716E6F71787E83888D929598CE
:10264800999C9EA0A0A09E9B98928E88837F7E7D59
:102658007C7A7A778590979480776A62594E4F533F
:102668005C6569707273726F70737980868B9093F2
:1026780096989A9D9D9F9F9F9D9996908B86807E08
:102688007D7D7C797976869198957F766861594DBC
:102698004F545F686B717274726E6F727A81868D37
:1026A800909497989B9C9FA0A0A09C9A96908C85AC
:1026B800817C7C7A7B7878757A8C929988786F613E
:1026C8005E524D5358676C7175747671707276806E
:1026D800858B909397989A9C9D9F9F9E9E9A979181
:1026E8008C88817D7A797B79787674858F98927DCC
:1026F800726560574D5055626B707576777571715C
:10270800747B84898F9296989A9C9D9F9F9F9F9B8C
:1027180098938E89827F797A7979777674798B9391
:102728009988776C5F5D4F4D515A696F75797879E3
:102738007471747880888C9295989B9B9C9E9DA0C0
:102748009D9D98949089857E7A7777787776767349
:10275800838E98947D72615D554B4E52616D737A8C
:102768007A7C787574777D858A9094979B9C9E9FD8
:10277800A0A09F9D9A95908A857F7A7775767674C2
:1027880075717889939A8774665A594D4B4F5B6E69
:10279800757D7E7F7F7976757B838A9094989B9EE2
:1027A8009F9E9F9E9F9D9A968F8A847F7A7473734B
:1027B8007474737471818C999682735F5B544C4DF9
:1027C8004D5E6B78828184807E7B7A7E82878C9155
:1027D800979B9FA0A2A1A09E9B97918C86827D79B2
:1027E800757574767476737987929D90826F635D40
:1027F800534F4B505D69777D81817F7D7C7D7E81E4
:1028080084898E94999DA0A1A2A19F9B97918B8763
:10281800817D7877767677777776828B9A998E7FAF
:102828006B645A544E4B525C6C787D807E7E7D7C06
:102838007C7C7F82878E92999C9FA0A09F9C999474
:10284800908A86817D7A787878797A797E87939D5F
:1028580099907C6E6359534A494D5766727C7F80C4
:1028680081818182818282868B91979A9EA0A1A084
:102878009E9A96908B85817C787676777878787F23
:1028880089959996897A6E625C544F4C4F58657059
:10289800797D7F81828586868585888C9195999BAF
:1028A8009D9E9E9D9A96908A847F7B78777677778F
:1028B800797F889399978E8074675F57514C4B51F5
:1028C8005B6771777B7D808486888888888B8F9307
:1028D800989A9D9E9F9F9D9A95908A857F7B7877F1
:1028E800757675797E88919593897F726A625B5453
:1028F8004E4E515A656E767A7E82868A8B8B8A8A8C
:102908008B8E9296999B9D9D9D9C9995908A847F8C
:102918007B79777775787C848D91918980746C65E3
:102928005F595350515760697175797D81868A8BDB
:102938008C8C8D8F93979A9C9B9C9B9A9895918A47
:1029480085807D7B7A79777A7F889195948A7F7262
:102958006A625C56514E5158616A7074777A7E8209
:1029680086898A8B8D9095999C9F9FA09F9E9C9904
:10297800948E88837F7C7A7977787C858D918F8611
:102988007B6F67605B565251535A646C7276787BE2
:102998007F84878A8B8D8E9195989B9C9D9C9C9A11
:1029A8009895908A85817E7C7A7A787B7F889194C5
:1029B80093877D6F675F5A5550505259626B717497
:1029C80076797C8286898B8D8F92979A9E9FA09F1D
:1029D8009E9D9A96918B86817D7C7A7A777A7E897C
:1029E800919492847A6B645C57534F51545F67702B
:1029F8007477787B7E8287898B8D9093979B9D9F38
:102A08009E9F9D9B98949088857F7E7B7B79787D1F
:102A1800828E93958B7E70645E57555050525A65DE
:102A28006E75787A7B7E8386898B8D909296999B3A
:102A38009C9C9B9A9795918D87827F7B7B797B78ED
:102A48007C828D9899958476675F58534F4D50597D
:102A5800646F777A7B7B7E808487898B8E92969A47
:102A68009C9E9E9E9C9A96938D88827E7A79787891
:102A780078787F8795989789786A5D58504F4D5335
:102A88005E6B798084848486868787878A8C909217
:102A9800959495949493908E8A8783807C7978789E
:102AA800797B7A8187969F9E958073625C544F4E9E
:102AB800515C69767F8283828283828484888A8E4D
:102AC80091929494959393908E8B8885817E7A7950
:102AD80079797C7C7D8791A1A19C8975675A554C31
:102AE8004B4D586877808485858483828082848A68
:102AF8008D91929394949492908F8B8A86837E7C06
:102B0800797A7B7C7D7D8992A3A19B8875685A55CB
:102B18004B4B4E5B69767E81828181807F7F818588
:102B28008A8E91939494959392908F8D8B898481BA
:102B38007B7978797A7C7C848F9EA69F927B6D5F67
:102B4800564F4A4F5867747C8180807C7A79797EA9
:102B580081898C919294939493929290908E8B8782
:102B6800827E7D7B7E7C807D8693A0AA9C8D6F6112
:102B7800565152515B66747E7F7D75706E6E7579A5
:102B880083898F91919190909191939494938F8C44
:102B980084817C7D7D8080837F8794A0AC9A8B6DB7
:102BA8005F585255515C67747E7C78706A6A6B72A4
:102BB80079848A9091929192929294949796959012
:102BC8008D85827D7E7F8182837F8697A2AD94806A
:102BD8006353554D565661727A8179706A64676A93
:102BE800747F89919293909091919596999A9997DB
:102BF800908C85817D7D7F8181827E84959FA8923E
:102C08007C6555564E535662737A7F766F6966694E
:102C18006C78818E9394918F8F909194979B9C9AC6
:102C2800968F8B82807B7D808381837C8596A0AA0A
:102C38008E796256564D4F5562747B7C756E6B6704
:102C48006769778490979494908F918F94969B9FBF
:102C58009C98918A847E7B7D808383827E919AA9C9
:102C68009D806E5756504C505969797979706C68C7
:102C780065686F7E8B9495969292909192979A9FA1
:102C88009D9B968E8A807D7A7C808280827B909CB8
:102C9800A5A07F725D5852494D5767767877726E56
:102CA8006B67666F7C8A9395969394919292969BA4
:102CB8009D9E9B959287837C7C7F8081827D86996F
:102CC800A0A78D796558544A49505F6C7676747020
:102CD8006C67676B75838D94969595939493969A84
:102CE8009C9F9D9A938E86817B7C7E817F807C834E
:102CF8009A9EA48C776B5A544B47555E6B747376C7
:102D0800726E6A686D77828D929596969494959670
:102D18009B9C9E9C98958E86827B7D7D7F7E7F7C0A
:102D280082999EA28E796E5D534A45505A676F7498
:102D38007877736F6C6D767E888D93959697969756
:102D4800999A9D9B9B99958E87827E7F7E7F7D81B8
:102D58007B909DA09B7F7363564D4648575F6B7071
:102D680075797773706D727B818B8E94969798982E
:102D7800999A9A9C999995918C86807C7D7C7D7C8A
:102D88007F7C8F9C9E9A857B6B5A4E4546505A662F
:102D980071787E7E7A767373787C84898F92969721
:102DA80098999999999796938E8B85817D7D7D7F4A
:102DB8007D807C91A09F9D897E705B4D45435057D7
:102DC80063717980807B77727176787F858C939533
:102DD800989B9B9C9B9A999792908985817D7E7DF3
:102DE8007E7E817D919F9E9A867B6F584844445190
:102DF8005A65747E82827A76736F74797F878E942F
:102E0800999A9C9D9B9A999795908D89847E7E7EB0
:102E18007F7C7F80859EA09C938075624A42404655
:102E280055606F7E85868277726F6F737A818D9514
:102E3800999E9F9E9E9C989793918D8882807D7D78
:102E48007D7E7C807D7F9CA1968A7B6F61463C4419
:102E5800515D6A77848B857D736F6D70767F8892FC
:102E6800999C9E9C9D9C9B989694918D88837F7B32
:102E78007B7B7B7C7C7F798DA29B9182746A543F9B
:102E8800404A5A667280898983766F6D6E747B8535
:102E98008F979A9C9D9D9A9A989795928E8B8580EC
:102EA8007B7A7D7D7D7C807A8FA39B8E8071675332
:102EB8003E404C5C69737E898880756D6C70757C4A
:102EC800858F989A9B9A9D9B9B989896948E8B86B3
:102ED800807C7B7D7D7E7C807B8EA39C8F806F67D2
:102EE800543F3F4B5C6B757E888980736C6B6F7544
:102EF8007C858F969999999A999998979694908C98
:102F080086817E7B7C7D7E7C807D7F9CA397887577
:102F18006A62493D4756687379838984796D686C1C
:102F2800737980899296979696989898979795939B
:102F38008E8984817D7E7F817F827F839DA59C8B06
:102F4800776B634D3F424F6371767D85847D7068F2
:102F58006A72787E848C93989797999A9B99989699
:102F680094908C86817D7D7F7F807F817E8EA2A2DA
:102F7800988571695C474044556772777F84827988
:102F88006E686C737A7F858E95999997999A9B9AB2
:102F98009695948F8B85807E7E7F817E8080839AB4
:102FA800A39E917C6D65524442495B6A7279808226
:102FB8007F766D6B70757C8189919698999A9A9BAA
:102FC8009A9A9795918E89837F7E7E80807F807D77
:102FD8008C9EA19A8773695E4F474752626F757AD4
:102FE8007C7C78706A6B717A81868C929799999AB1
:102FF8009A9B9B9A9794908C88837F7F7F817F7F11
:103008007E8195A1A0937E6D65574B474A5868719C
:1030180075787877716A686D757F858A9095999BC0
:103028009C9C9D9E9E9B9895918C88828080808098
:103038007E7D7A86969D9A8973665D55514E546059
:103048006C73757574716C6A6C727B83888D9194DE
:10305800989A9B9C9D9D9C9A97938F8B8782808042
:10306800807F7D7D7A85939C9A8A74665D575655D4
:103078005A646E747674706B67666A717B84898D26
:1030880090929497979A9B9C9C9B9996918C8884F4
:1030980082828381807D7F8C979B937F6C62595756
:1030A8005658606A717574706C6866686D767F864C
:1030B8008B8E9093949598999B9C9B9A97928F8BC3
:1030C8008784828182807F7C7D8A949A937F6E62D6
:1030D8005A5A5B5D636B727776706B6664686E765E
:1030E8007F868B8D8F90919395979A9A9B999793BA
:1030F8008F8B878383828382817D7E8B949A938151
:103108006F635B5C5C5E646B737775706B6665663A
:103118006D767F868A8C8E8F90939597999B9B99D5
:1031280096938F8B878483838381807D7E8A94980E
:1031380092816F635C5C5D5F656C747675706B65BE
:1031480064676D767F868A8D8D8E8F929496989A15
:103158009A9996938F8B888482828281807E7B83E2
:103168008E96978B786A605D5F5F646A7176777414
:103178006E6865656A727B82878A8C8D8E90929460
:10318800979899999794918C898684838383818071
:103198007D848F96978B796A615C5E5F636A7075D0
:1031A80077736D6864656A717A82878A8C8D8E9070
:1031B8009294969899999795918D8A87848382821B
:1031C80081807C7D899197928272665E5E5F62687B
:1031D8006D747776716B6565676E767E84898B8D85
:1031E8008D8E9092959799999996938F8B888583D0
:1031F800828282807F7C838D94978B7A6D625E60F9
:1032080060656B707677746F6966676B71798186B4
:10321800898B8C8E8F9194969799999795918E8A90
:10322800878484828281807D7E8890979283736868
:103238005F5F6062676D737776716B6665686D75E1
:103248007D83878A8B8D8E9092959899999896937D
:10325800908C898684838383807F7C838C94958BF0
:103268007C6E6460606064696F7476736F696666AB
:103278006970777E85888A8D8D8F929496989999B2
:10328800989693908C898684838281817D7E878EAF
:10329800959184766A62606061656A707475716D13
:1032A8006867696D737A8085888B8D8F9092959702
:1032B8009999999695918F8B888583828281807D53
:1032C8007D868D949286786C63626162666B707499
:1032D80075716C6765666A70787E8287898C8F9055
:1032E800939596989999989694918D8A88868583CE
:1032F80082807E838A90938C80746B656360606241
:10330800666B6E6F6D696766686C71777C81858A9C
:103318008E9194979A9C9E9E9E9D9B9896928F8B39
:10332800888583807E7C7E82878A867F766D6864C6
:1033380062626366696B6C6B696868696D71767BDC
:103348007F83878B8F9395989A9C9D9D9C9B98963D
:10335800938F8C89878582807E7F82878987817910
:10336800726C686564656667696A696766656668D8
:103378006D71767B7F84888D9094979A9D9F9F9F8F
:103388009E9C9A9894918E8B8885827F7F81848772
:10339800848079726C69666665656768696968675B
:1033A80067686A6D72767A7E82868A8E9295989B15
:1033B8009C9D9D9D9C9A9795918F8C8986838180F1
:1033C80082848684807A74706C6A686767676869C3
:1033D8006968676767696C7073777B7F83878B8F92
:1033E8009295989A9C9C9C9C9A989694918F8C897B
:1033F80086838383848584807C76726E6C6A696830
:103408006868696968676768696C6F73767A7D81CF
:1034180085898D909396989A9B9B9B9A989694925F
:10342800908D8A87858483848583807C7874726F85
:103438006E6C6B6B6A6A6A69686868696B6E7073D0
:1034480076797D8184888C8F9294969899999998A9
:10345800979694918F8C8A87858484858483807CD1
:1034680078757371706E6D6C6B6B6A696868686982
:103478006B6D6F7274777A7E8185888C8F92959741
:1034880098999A9A9A99989694918E8B8784817D27
:103498007A777472706E6D6D6C6C6C6D6E70727420
:1034A80076777A7C7E80828485878889898A8A8AE9
:1034B8008989888887868584828180807F7E7D7DD2
:1034C8007C7C7C7C7C7C7C7C7C7C7D7D7D7E7E7E2B
:1034D8007F7F7F7F808080808080818081818181E3
:1034E8008181818180808080808080807F7F7F7FD4
:1034F8007F7F7F7F7F7F7F7F7F7F7F7F7F7F7F7FD4
:103508007F7F8080808080808080808080808080B5
:103518008080808080808080807F7F7F7F7F7F7FAA
:103528007F7F7F7F7F7F7F7F7F7F7F7F7F7F7F7FA3
:10353800808080808080808080808181818181817D
:103548008180818080808080807F7F7F7F7E7E7E7B
:103558007E7E7E7E7D7E7E7E7E7E7E7F7F7F7F807E
:103568008080808181818181828181818181818046
:103578008080807F7F7F7F7F7E7E7E7E7E7E7E7E58
:103588007F7F7F7F7F808080808080808181818134
:10359800818180808080807F7F7F7F7F7F7F7F7E2B
:1035A8007E7F7F7F7F7F7F7F7F7F7F80808080801F
:1035B8008080808080808080808080808080808003
:1035C80080807F7F7F7F7F7F7F7F7F7F7F7F7F7F01
:1035D8007F7F7F7F7F7F80808080808080808080E9
:1035E800808080808080807F7F7F7F7F7F7F7F7FDC
:1035F8007F7F7F7F7F7F7F7F7F807F7F7F80807FD0
:103608007F80808080808080807F7F7F7F7F7F7FBA
:103618007F7F7F7F7F7F7F7F7F7F7F7F807F8080AF
:103628008080808080808080808080807F80807F94
:103638007F7F7F7F7F7F7F7F7F7F7F7F7F7F7F7F92
:103648007F7F7F807F7F7F7F808080808080808079
:10365800808080808080807F7F7F7F7F7F7F7F7F6B
:103668007F7F7F7F7F7F7F7F7F808080808080805B
:10367800808080808080808080807F7F7F7F7F7F48
:103688007F7F7F7F7F7F7F7F7F7F7F7F7F8080803F
:1036980080808080808080808080807F807F7F7F26
:1036A8007F7F7F7F7F7F7F807F7F807F808080801C
:1036B8007F807F7F7F7F7F7F7F7F7F7F7F7F7F7F11
:1036C8007F7F807F808080808080808080808080F5
:1036D80080808080807F7F7F7F7F7F7F7F7F7F7FED
:1036E8007F7F7F807F80807F8080808080808080D7
:1036F800808080808080807F7F7F7F7F7F7F7F7FCB
:103708007F7F7F7F7F7F7F80807F8080807F8080BA
:10371800807F7F7F7F7F7F7F7F7F7F7F7F7F8080AE
:10372800808080808080808080808080807F7F7F94
:103738007F7F7F7F7F7F7F7F7F7F807F7F8080808D
:10374800808080808080808080808080807F7F7F74
:103758007F7F7F7F7F7F7F807F807F80808080806A
:10376800807F80808080807F7F80807F7F807F8057
:103778008080808080808080808080808080808041
:10378800807F7F7F7F7F7F7F7F7F7F7F7F7F7F7F40
:103798007F7F7F808080807F807F7F7F8080807F29
:1037A800807F7F8080807F7F7F7F807F8080808018
:1037B800808080808080808080808080807F807F03
:1037C8007F7F7F7F7F7F7F7F7F7F7F7F7F7F7F7F01
:1037D8007F7F7F7F7F7F80808080808080808080E7
:1037E80080808080808080808080807F7F7F7F7FD6
:1037F8007F7F7F7F7F7F7F7F80808080807F7F7FCC
:103808007F7F7F7F7F7F7F7F7F7F807F7F7F8080BD
:1038180080808080808080808080808080808080A0
:103828007F7F7F7F7F7F7F7F7F7F7F7F7F7F7F7FA0
:103838007F7F808080808080808080808080808082
:103848008080808080808080808080808080808070
:103858008080808080807F7F80807F7F7F807F7F67
:103868007F7F7F7F7F7F807F7F7F80808080808059
:103878008080808080808080808080807F7F7F8043
:103888007F7F7F7F7F7F7F7F7F7F7F7F7F7F7F7F40
:103898007F80808080808080808080808080808021
:1038A80080807F807F7F7F7F7F7F7F7F7F7F7F7F1D
:1038B8007F7F7F8080808080808080808080808003
:1038C8008080807F7F7F7F7F7F7F807F807F8080F9
:1038D8007F7F7F807F807F7F7F7F7F7F7F7F7F7FEE
:1038E8007F7F808080807F7F808080808080807FD5
:1038F8007F7F7F7F7F7F7F7F807F7F8080808080CA
:103908008080808080808080808080807F7F7F80B2
:103918007F7F7F7F7F7F7F7F807F807F80808080A9
:10392800808080808080807F808080807F7F7F7F94
:103938007F7F807F807F807F808080808080808084
:10394800808080808080807F807F8080807F7F8073
:103958007F7F7F7F7F807F80808080808080808065
:1039680080807F7F7F7F7F7F7F7F7F7F7F7F7F7F5D
:103978007F7F7F807F7F8080808080808080808044
:10398800808080808080808080808080808080802F
:10399800807F7F7F807F7F7F7F7F7F7F7F7F7F7F2D
:1039A8007F7F7F7F7F7F7F7F7F8080808080808018
:1039B80080808080808080808080808080808080FF
:1039C8007F7F7F7F7F7F7F7F7F7F7F7F7F808080FC
:1039D80080808080808080808080808080808080DF
:1039E8007F807F7F7F7F7F7F7F7F7F7F7F7F7F7FDE
:1039F8007F7F7F7F7F7F7F7F7F7F7F7F7F808080CC
:103A080080808080808080808080808080808080AE
:103A1800808080807F807F807F7F7F7F7F7F7F80A7
:103A28007F807F7F807F8080808080808080808092
:103A3800808080807F807F807F7F7F7F7F7F7F7F88
:103A48007F7F7F7F7F7F7F7F7F7F7F7F7F7F7F7F7E
:103A58007F7F7F7F807F8080808080808080808063
:103A6800808080808080808080807F7F7F7F807F53
:103A78007F7F807F807F8080808080808080808042
:103A8800807F807F7F7F7F7F7F7F7F7F7F7F7F7F3C
:103A98007F7F7F7F7F7F7F7F7F7F7F7F7F7F7F7F2E
:103AA8007F7F7F8080808080808080808080808011
:103AB8008080808080808080808080808080807FFF
:103AC8007F7F7F7F7F7F7F7F7F7F7F7F7F7F7F7FFE
:103AD8007F7F7F7F7F7F7F7F7F7F7F7F7F7F7F7FEE
:103AE8007F7F7F807F8080808080808080808080D2
:103AF8008080808080808080808080808080807FBF
:103B0800807F807F8080807F807F80807F80807FB3
:103B1800807F807F807F80807F807F807F7F7F7FA6
:103B28007F7F7F7F7F7F7F7F7F807F7F8080808098
:103B3800808080808080808080808080808080807D
:103B4800808080808080807F807F80807F7F807F72
:103B5800807F7F7F7F7F7F807F807F7F807F807F68
:103B6800807F807F7F807F807F7F807F80807F8055
:103B78007F7F7F7F807F807F807F80808080808044
:103B8800808080808080808080808080808080802D
:103B980080807F7F7F7F7F7F7F7F7F7F7F7F7F7F2B
:103BA8007F7F7F7F7F7F7F7F7F7F7F7F7F7F7F7F1D
:103BB800807F8080808080808080808080808080FE
:103BC800808080808080808080807F7F7F7F7F7FF3
:103BD8007F7F7F7F7F7F7F7F7F807F8080808080E7
:103BE80080808080808080808080808080808080CD
:103BF800808080807F7F7F7F7F7F7F7F7F7F7F7FC9
:103C08007F7F7F7F7F7F7F7F7F7F7F7F7F807F80BA
:103C1800808080808080808080808080808080809C
:103C28007F80807F807F807F807F80807F807F8093
:103C3800808080808080808080808080808080807C
:103C48008080808080808080808080807F7F7F7F70
:103C58007F7F7F7F7F7F7F7F7F7F7F7F7F80808069
:103C6800808080808080808080808080808080804C
:103C7800808080808080807F807F7F7F7F7F7F7F44
:103C88007F7F7F7F7F7F7F7F7F7F7F7F7F7F7F7F3C
:103C98007F7F7F7F7F7F7F7F7F7F7F7F7F7F7F7F2C
:103CA8007F807F80808080808080808080807F800F
:103CB8007F808080808080808080808080808080FD
:103CC80080807F807F807F807F807F807F807F80F3
:103CD8007F7F807F807F808080807F8080808080E1
:103CE800808080808080808080808080807F807FCE
:103CF8007F7F7F7F7F7F7F7F7F7F7F7F7F7F7F80CB
:103D08008080807F80807F808080808080808080AD
:103D1800808080808080808080808080808080809B
:103D2800808080808080807F7F7F7F7F7F7F7F7F94
:103D38007F7F7F7F7F7F7F7F807F80808080808084
:103D48007F80807F8080808080808080808080806D
:103D58008080808080807F7F7F7F7F7F7F7F7F7F65
:103D68007F7F7F7F7F7F7F7F7F7F7F7F80807F8058
:103D7800808080808080808080807F807F8080803D
:103D88007F7F80807F7F7F7F7F7F807F80807F7F36
:103D98007F807F7F7F7F7F7F7F7F7F7F7F80808027
:103DA800808080808080808080808080808080800B
:103DB80080808080808080808080808080808080FB
:103DC800808080808080808080808080807F7F7FEE
:103DD8007F7F7F7F7F7F7F7F7F7F7F7F7F7F7F7FEB
:103DE8007F808080808080808080808080808080CC
:103DF8008080808080808080808080807F807F7FBE
:103E08007F7F7F7F7F7F7F7F7F7F7F7F7F7F7F7FBA
:103E18007F7F7F7F7F7F7F7F7F807F8080808080A4
:103E2800808080808080808080808080808080808A
:103E3800808080808080808080807F807F7F7F7F7F
:103E48007F7F7F7F7F7F7F7F7F7F7F7F7F7F7F8079
:103E58007F7F7F7F7F807F7F7F7F7F7F7F7F7F7F69
:103E68007F7F7F7F7F7F7F7F7F7F7F808080808055
:103E7800808080808080808080808080808080803A
:103E88008080808080808080808080807F7F7F7F2E
:103E98007F7F7F7F7F7F7F7F7F7F7F7F7F7F7F7F2A
:103EA8007F7F7F7F7F7F7F7F7F7F7F7F7F80808017
:103EB80080808080808080808080807F807F807FFD
:103EC8007F7F7F7F7F7F7F7F7F7F7F7F7F7F7F7FFA
:103ED8007F7F80807F8080808080808080808080DD
:103EE80080808080808080808080808080807F80CB
:103EF8007F80808080808080808080807F7F7F7FBF
:103F08007F7F7F7F7F7F7F7F7F7F7F7F7F7F7F7FB9
:103F18007F7F807F8080808080808080808080809C
:103F28008080808080808080808080808080808089
:103F380080807F7F7F7F7F7F7F7F7F7F7F7F7F7F87
:103F48007F7F7F7F7F7F7F7F7F7F7F7F7F7F7F7F79
:103F58007F7F7F7F807F808080808080808080805E
:103F68008080807F7F80807F8080807F8080807F4E
:103F7800807F807F807F8080807F807F807F80803F
:103F88008080808080808080808080808080808029
:103F9800808080808080807F807F7F7F7F7F7F7F21
:103FA8007F7F7F7F7F7F7F7F7F7F7F7F7F7F808017
:103FB80080808080808080808080808080808080F9
:103FC8008080808080808080808080807F7F7F7FED
:103FD8007F7F7F7F7F7F7F7F7F7F7F7F7F7F7F7FE9
:103FE8007F7F7F7F7F7F7F807F807F8080808080D2
:103FF80080808080808080808080808080808080B9
:10400800808080808080807F7F7F7F7F7F7F7F7FB1
:104018007F7F7F7F7F7F7F7F7F7F7F7F7F7F7F7FA8
:10402800807F808080808080808080808080808089
:104038008080808080808080808080807F7F7F7F7C
:104048007F7F7F7F7F7F7F7F7F7F7F7F7F7F7F7F78
:104058007F7F7F7F7F7F808080808080808080805E
:104068008080808080808080808080808080808048
:104078007F807F7F7F7F7F7F7F7F7F7F7F7F7F7F47
:104088007F7F7F7F7F7F807F7F7F7F7F7F7F7F7F37
:104098007F8080808080808080808080807F7F7F1C
:1040A8007F7F7F7F7F7F7F7F7F7F7F7F807F7F8016
:1040B8007F808080808080808080808080808080F9
:1040C80080808080808080808080808080807F80E9
:1040D8007F807F7F7F7F7F7F7F7F7F7F7F7F7F7FE7
:1040E8007F7F7F7F7F7F7F7F7F7F807F7F808080D4
:1040F80080807F807F807F808080808080807F80BC
:1041080080808080807F80808080808080808080A8
:104118008080808080808080808080808080808097
:104128008080808080808080808080808080808087
:104138008080808080808080808080808080808077
:1041480080808080807F80807F7F7F7F7F7F7F7F70
:104158007F7F7F7F7F7F7F7F7F7F7F7F7F7F7F7F67
:104168007F7F7F7F7F7F7F7F7F807F807F80808052
:1041780080807F8080808080808080808080808038
:104188008080808080808080808080808080808027
:10419800808080807F807F807F807F7F807F807F1E
:1041A800807F7F807F807F807F80807F807F807F0F
:1041B800807F807F807F7F7F7F7F7F7F7F807F7F03
:1041C800807F7F807F7F807F80807F808080807FEE
:1041D80080807F7F7F807F7F807F7F807F7F7F7FE2
:1041E800807F7F7F7F807F7F807F7F8080808080CF
:1041F8008080807F8080808080807F807F7F7F7FBD
:104208007F7F7F7F7F7F7F7F7F7F7F7F7F7F7F80B5
:104218007F80807F808080807F807F807F80807F9C
:10422800807F80807F7F7F807F7F807F7F80807F8F
:104238007F7F7F807F7F807F7F807F7F807F808080
:104248007F80807F80807F80807F80807F80807F6C
:10425800807F807F81807F827F7F817F80807E805A
:10426800807F7F807F7F807F7F7F7F7F7F7F7F7F53
:104278007F80807F80807F80807F817F8082808137
:10428800827F81807F807F80807F807F7F7F7F802B
:104298007F7F7F7E7F7F7F7E7F7F7E807E7F7F7E2A
:1042A800807E80807F8281808280818280818081FF
:1042B800817F817F7F817E7E807E7F7E7E7F7E7F05
:1042C8007F7F7E807F7E817F7F81808081818381E7
:1042D800838280838081827F81817E7F7F7E7E7ED4
:1042E8007E7E7E7E7E7E7E7F7E7E7F7E807F7F80DE
:1042F8007F808080818180848281848183818182A2
:1043080081828080817F7E7F7E7D7D7D7D7C7C7EBD
:104318007B7C7E7D7C7F7F7E7F7F818181828483A1
:10432800868784898784888384858082817C7E7D52
:104338007A7A7978777875777876797A797C7C7EE5
:10434800807F818284848588878A8F8D8F918D8CE8
:104358008A8685817D7E77787773757370747172BC
:10436800747476777B7D7D7F84848685898B898B41
:104378008E8C9294959A959590878079746E6A6CD4
:10438800696C6A6A6F6E6C717474777C80818387DC
:1043980089898B8B8C8D8C908F8F918EA0A098A201
:1043A800998C7D7065575153535A646D767C7E8025
:1043B8007F7D7C7B7C8080878B8C9193929492917B
:1043C800928C908E8B899C9C8F9E9984776B5F5082
:1043D80048515056636D74767C7C777979787D8105
:1043E800868C8E9697969C99969795938E8E8F86A7
:1043F8009A9E919B9285735F5B4C404A53556575B5
:104408007A7D80807C74777D7B818A9294979C9D4D
:1044180097979593918D8F8D8B839C9C8A99917C8E
:104428006E5C544A3F4D545A69777D81817D7F7A0D
:10443800757F83848E929697969A989094928F8D92
:10444800908E8A8891A1949498846D5F554C424DC2
:104458005C5D68777B747378726E767D85868E95E1
:10446800949196979295959698919795888F8A9911
:10447800A4979C8F796D524A4B47525C6A71737648
:10448800746E6D6C74767E8B8890948A91928D96FA
:1044980093969C95979B90918D8DADA2959A8471DA
:1044A80058444E4E4D616D747470716F63667474C8
:1044B8007989908C8C8E8B87898F9697979A979409
:1044C80090898A9085A0BAA59989765D3F41535510
:1044D8006277807E746D685F626C77838D938F8856
:1044E800837E7C7F8994989B9E9A958F8A878B8000
:1044F800ADCB9B9D8F72572C42594C658388837333
:104508006B65585A69758792959389817A767E8A00
:10451800939EA3A39D988F89838A868FC7B4999AFF
:104528007C683D32545156778584776B685B576455
:1045380071808D95958D827B7778818F9AA3A19FC5
:1045480099928984838D8890CDB7949577643A2F12
:104558005756597B898775686759546373838F9554
:10456800978D807A757A82909DA4A5A19792898566
:10457800838B8B91CCB7969575653A2F58575A7996
:10458800888673666459566475839198958B7F798C
:10459800737584929BA4A6A1968F8886818C8D932F
:1045A800CDB7969474643C31585B5D7A87847163A7
:1045B8005F59556275849197948A8178747A869345
:1045C8009DA6A7A0948D8B838389948CAFCB9F9451
:1045D8007E69553046605B6E7F837C665D5C575DA7
:1045E8006E7F8E96978F847A75767F8D9CA2A7A50D
:1045F800998E878683868C978BAEC59D91786A58ED
:10460800354962636F767D7760575859606E7F9041
:1046180095938D847B787B85909DA5A6A2988E889E
:104628008686898C978DACC29D92786A5A384A6280
:104638006371787B755F5554565F6F808E96958C45
:10464800827C7A7C8695A1A5A6A2988C8285878B88
:104658008D949493B1AB98846A6753475965727582
:104668006C6F635550505E6D798790918E857F8110
:10467800848B939EA8A3A099908A85898C8F909209
:104688008AA1B5A08E73675E464C5E6C776E6C69C6
:104698005B514D556873808D9191888082848D948B
:1046A8009FA7A9A49B958C87868B91908D8F839AC1
:1046B800AA9C916F645F4D515B6A7A6E6A645B5520
:1046C80051586877828B908C888382878D98A0A4B4
:1046D800A6A09B928B89888C90908D8C819AAB9F99
:1046E800916C635C4B525B6B7D706A615756515895
:1046F8006A76878D8C8E85848287929AA4A7A6A1D4
:1047080099928C89878C90918B888185A4A59A7DB4
:104718005F5E534F5762797C6D635959565762747F
:10472800848D8E8B878482868D98A1A4A5A09A9467
:104738008D8987898D908E88867B94A8A3906257EF
:10474800545157586C7E7A6F5955585C626C7E8FFD
:104758009690898382838A939EA4A8A39D948D882A
:104768008484888D8F8B8482778FA6A59264565413
:10477800545857697A7D736158595B626D7C8E967F
:10478800948D84818288929DA6A8A59C948B888408
:1047980084858A8D8C8480777B9DA5A47B59514F15
:1047A80059585F717D7F715D5757626C7785929814
:1047B80095898180858F96A0A4A6A1988D878482EB
:1047C80083868B8C88817D748DA3AA9767554C55F9
:1047D8005C5966737F7D6A5B535965707D899498CF
:1047E8009287808189939DA3A5A39E978C868182B9
:1047F80083888A8B8481787D9AA4A67F5C504E5EDC
:104808005B5F6B7782766356545F6B76828D979683
:104818008D837F838E979FA3A3A298928985838295
:104828008486898A8280757C98A4AB8363504C5EA9
:104838005B606570827C705B515A63737B8792956D
:10484800948A85848C959DA2A3A39F988E88838241
:10485800818487898480777C939FA68667504A588D
:104868005A62646D7A7A75635958606E7C8791953F
:10487800959089898C969CA1A3A2A099918B8383FA
:104888007F818384857D7B728696A79C785E47515D
:104898005861656572797C73625A5A6573808A902B
:1048A8009593908C8C91979EA0A2A19D988F8A84B5
:1048B80082808181838080767B8C9BA68C71504717
:1048C800525B68666A72777B6F635A5B6875848D22
:1048D800929492908E9095999FA0A29F9C968F8972
:1048E800838080818382807B75838FA49B836247CA
:1048F8004A5265696A6A6F75756C615A5E6B7B8727
:104908008D908E918F9394989E9FA3A09F9A939039
:10491800898782828284807F777B8796A38F785469
:10492800474C5869696B6A6E75726B605C626F7F21
:104938008A8F8F8F8E9194989A9E9FA0A09C99920F
:104948008E8885828181817E7E777B8694A2917F05
:10495800594A4A56696C6E696C71736E665E616B12
:104968007B888E8F8D8C9093999A9D9E9E9F9B9904
:10497800938F8986828280837E7F767B8593A293BC
:10498800825B4C4856686D70686B6E747369605DC5
:10499800667886918E8D8A8D94989E9B9D9B9D9D11
:1049A8009A968E8A85838382837F7F787C84939F7F
:1049B800968561514755646E70696A6B73726F634F
:1049C800616473828D908C8A8A91979C9C9B9A9A39
:1049D8009B9A97918A868283828481807A7D859347
:1049E800A0998A67554852606A6E686969727370DF
:1049F8006760626C7D898E8D898B8F979C9E9C9A4F
:104A08009A9A9B98938D868383838682837A7F85FF
:104A180094A09A8C6B584A515D686D69686A707386
:104A2800716962616B78868C8D8A8A8E959B9D9D53
:104A38009B9A9A9A98948E888483838683847C80B0
:104A480085929F9B91715F4D505861676567697248
:104A580074756C6562687481898B8A8B8D95999D54
:104A68009C9A99989997958E8A8484828683857F63
:104A7800818793A09C9477645050555C6361666805
:104A880071767671676466707B8489888B8D959A58
:104A98009E9D9C9A999997968F8B8583838484840D
:104AA800808287939E9D947B68545151575B5D61CA
:104AB80066707679736E686C727C8387888A8E9448
:104AC8009B9D9F9C9C9A9A97948E888582848385C7
:104AD8008380868B9B9D9C8B766353524F5555598B
:104AE8005E67717879756F6D6F767D8286878B903A
:104AF800979DA0A09E9C9B9996918C86838081818E
:104B0800838180848B999C9C8B7864555150545533
:104B1800585D6670787A78737071777C828487893B
:104B280090959CA0A1A09E9D9A98928E8784818240
:104B380081837F838690999A9783755E564F5051EB
:104B480053575C67707879787474757A7F83858732
:104B58008C91979DA0A1A09D9C9895908B86828210
:104B68008183818587919A9C99877862584F4E50A6
:104B78005054576068717676757375777C80838733
:104B88008A90959DA1A5A4A4A19E9A95918A8783B0
:104B98008282818184889396998E806E5D564F5368
:104BA8005055565D656C7375767475777B7F828515
:104BB800888B93969E9FA2A19F9E9A99918F888891
:104BC8008585848388899595998D8170605A525519
:104BD8005256575C61676B6D6D6D6E72777B808422
:104BE800898D93989EA1A4A4A4A19F9B97948F8E2E
:104BF8008A8A8687888F9395918378675F575654FA
:104C08005355565C606568696B6C7074797E8287F1
:104C18008B90969BA0A2A5A4A3A19E9A95928E8CF8
:104C28008A8886878A9193928A7E71645E575654E1
:104C38005455595D62656768696D7075797E8387BB
:104C48008D93999DA2A4A6A6A5A39F9C9794908DA9
:104C58008B8787878C8E8E8A7F7668625B585655DD
:104C680056585D6167686C6C7073777C8084888D3A
:104C780092979B9D9FA1A0A09E9B9893908D8988B9
:104C8800848484858A8A8B857F776E69625F5B5AA4
:104C98005A5C606366686B6C6F7275787B7F82871D
:104CA8008B9095999C9EA0A0A09E9C999694918E7D
:104CB8008D8D8D8E8E8C88837D76706A645F5C5A4C
:104CC800595A5C5E606265686B6E7275797D818623
:104CD8008A8F93979A9D9E9F9F9E9D9B9997959348
:104CE8009291908F8D8A87837F7B76726D6A6664D6
:104CF8006362616162636566686B6E7174787B7FFD
:104D080083878B8E9194969798999898979695956E
:104D1800949392908D8B8884807D7975726F6D6A7B
:104D280069676766666768696B6C6F7174777A7DA7
:104D3800808386898B8D8F91929393949494949485
:104D48009392908F8C8A8784827F7C797775737130
:104D58006F6E6E6D6D6D6E6F7071737577797B7D2B
:104D68007F8283858788898B8B8C8D8E8F8F8F8FA1
:104D78008E8E8C8B89878583817F7C7A7876757314
:104D88007271706F6F6F707172737576787A7C7EDE
:104D98008183848688898A8C8D8E8F8F8F8F8F8E62
:104DA8008C8B89878583817F7D7B79777674737215
:104DB800717171717272747576787A7B7D7F818377
:104DC80084868788898B8C8D8D8D8D8D8D8C8B8A33
:104DD80088868583817F7D7B797876757473727216
:104DE80072727373747577787A7C7D7F818284851B
:104DF8008688898A8B8C8C8C8C8C8B8A8988878511
:104E08008482807F7D7B7A78777675747474747405
:104E180075757677787A7B7D7E80818284858687B2
:104E2800888989898A8A8A89898887868584828106
:104E3800807E7D7C7B7A79787777777777777879D2
:104E4800797A7B7C7D7E7F80818283848586868754
:104E5800878787878787868584848382807F7E7D0E
:104E68007C7B7A7A79797878787979797A7B7C7D9C
:104E78007D7E7F8081828283848484858585858503
:104E8800848484838382828180807F7F7E7E7D7D0F
:104E98007C7C7C7C7C7C7C7C7D7D7D7E7E7F7F8039
:104EA80080808181818282828282828282818181E4
:104EB80081808080807F7F7F7F7E7E7E7E7E7E7EFB
:104EC8007E7E7E7E7E7F7F7F7F80808080808080E8
:104ED80080818080808080808080808080808080C9
:104EE8007F7F7F7F7F7F7F7F7F7F7F7F7F7F7F7FCA
:104EF8007F7F7F80808080808080808080808080AD
:104F08008080807F7F7F7F7F7F7F7F7F7F7F7F7FA6
:104F18007F80808080808080808080807F7F7F7F8E
:104F28007F7F7F7F7F7F7F7F7F7F7F7F7F7F7F7F89
:104F38008080808080808080808080808080808069
:104F480080807F7F7F7F7F7F80808080808080805F
:104F58008080808080807F7F7F7F7F7F7F7F7F7F53
:104F68007F7F7F7F7F7F7F7F7F7F7F7F7F7F7F8048
:104F78008080808080808080808080808080808029
:104F88008080807F807F7F7F7F7F7F7F7F7F7F7F25
:104F98007F7F7F7F7F7F7F7F7F7F7F7F7F7F7F7F19
:104FA8007F7F7F7F7F8080808080808080808080FE
:104FB8008080808080808080808080808080807FEA
:104FC800808080807F807F7F7F7F7F7F7F7F7F7FE4
:104FD8007F7F7F7F7F7F7F7F7F7F808080808080D3
:104FE80080808080808080808080808080808080B9
:104FF8008080808080808080807F7F7F7F7F7F7FB0
:105008007F7F7F7F7F7F7F7F7F7F7F7F7F7F7F7FA8
:105018007F7F7F808080808080808080808080808B
:1050280080808080808080807F7F7F7F7F7F7F7F80
:105038007F7F7F7F7F7F7F7F7F7F7F7F7F7F7F7F78
:10504800807F808080808080808080808080808059
:1050580080808080807F7F7F7F7F7F7F7F7F7F7F53
:105068007F7F7F7F7F7F7F7F7F7F7F7F7F7F7F7F48
:105078007F7F7F7F7F7F7F7F7F7F7F7F80807F8035
:105088008080808080808080808080808080808018
:105098008080808080808080808080808080808008
:1050A80080807F807F7F7F7F7F7F7F7F7F7F7F7F05
:1050B8007F7F7F7F7F7F7F7F7F7F7F7F7F7F7F7FF8
:1050C8007F7F7F7F7F7F7F7F7F7F7F7F7F7F7F7FE8
:1050D8007F7F7F7F7F7F7F807F80808080808080D0
:1050E80080808080808080808080808080808080B8
:1050F800808080808080807F807F8080807F7F80AC
:10510800808080807F807F7F7F807F7F7F807F7FA0
:105118007F7F7F807F7F7F7F807F807F80807F8091
:105128007F7F8080808080807F8080808080807F7B
:105138007F807F7F80807F807F7F7F807F7F808070
:10514800807F7F7F807F7F807F7F80807F80807F60
:10515800807F807F80808080808080807F807F7F4C
:105168007F7F7F7F80807F7F7F807F7F807F7F7F43
:10517800807F80807F80807F80807F807F7F7F7F2F
:105188007F7F7F807F807F7F7F7F7F7F7F7F808023
:105198007F80808080808080808080808080808008
:1051A800807F8080807F7F7F7F7F7F7F7F7F7F7F03
:1051B8007F7F7F7F7F7F807F80807F80807F8080F0
:1051C800808080808080807F80807F807F7F8080DB
:1051D80080807F807F808080807F7F7F7F7F7F7FD0
:1051E8007F7F7F7F7F7F807F7F80807F80807F80C1
:1051F8007F7F807F7F807F7F7F7F7F7F7F7F7F7FB5
:105208007F7F7F7F7F7F7F8080808080808080809D
:1052180080808080808080808080807F80807F8088
:105228007F80807F7F7F7F7F7F7F7F7F7F7F7F7F84
:105238007F80807F80808080808080808080808068
:105248008080807F7F807F7F7F7F7F7F7F7F7F7F62
:105258007F7F80807F807F8080808080808080804A
:105268008080807F7F80807F7F7F807F7F7F7F7F40
:105278007F7F7F807F80808080808080808080802A
:105288008080808080807F7F807F807F7F7F7F7F1E
:105298007F7F7F7F7F7F7F7F7F7F7F7F7F7F7F7F16
:1052A8007F7F7F7F7F807F808080808080808080FC
:1052B800808080808080808080808080807F7F80E8
:1052C800807F7F7F7F7F7F7F7F7F7F7F7F7F7F7FE5
:1052D8007F7F7F7F7F7F807F8080808080808080CD
:1052E800808080808080808080808080807F7F80B8
:1052F8007F7F7F7F807F7F7F8080808080808080AD
:105308008080808080807F807F7F7F7F7F7F7F7F9E
:105318007F7F7F7F7F7F7F7F7F807F80808080808F
:105328008080808080808080807F7F7F7F7F7F7F7C
:105338007F7F7F7F7F7F7F7F7F7F7F80807F7F7F73
:10534800807F7F7F7F8080808080807F7F807F805C
:105358007F807F7F7F7F807F807F807F7F807F804F
:105368008080808080808080808080808080807F36
:10537800807F7F7F7F7F7F7F7F7F7F7F7F7F7F7F34
:105388007F7F7F7F80808080808080808080808019
:10539800808080807F807F7F7F7F7F7F7F7F7F7F10
:1053A8007F7F7F7F7F7F7F7F7F7F7F7F8080808001
:1053B80080808080808080808080808080808080E5
:1053C800807F7F7F7F7F7F7F7F7F7F7F7F7F7F7FE4
:1053D8007F7F7F7F7F7F7F7F7F80808080808080CE
:1053E80080808080808080808080808080808080B5
:1053F800808080807F7F7F7F7F7F7F7F7F7F7F7FB1
:105408007F7F7F7F7F7F7F7F7F7F7F7F7F7F7F7FA4
:105418007F7F7F7F7F7F7F7F7F807F7F808080808F
:1054280080808080808080808080808080807F7F76
:105438007F7F7F7F7F7F7F7F7F7F7F7F7F7F7F7F74
:105448007F7F7F7F807F80807F808080808080805A
:105458008080808080808080808080808080808044
:105468008080808080807F807F7F7F7F7F7F7F7F3D
:105478007F807F7F807F80808080807F8080808029
:10548800808080807F7F7F7F7F7F7F7F7F7F7F7F20
:105498007F7F7F7F7F7F7F7F7F7F7F7F7F7F7F7F14
:1054A8007F7F7F807F807F7F807F7F807F807F7FFF
:1054B8007F807F7F7F7F7F7F807F808080808080EC
:1054C80080808080808080808080808080808080D4
:1054D800808080807F7F7F7F7F7F7F7F7F7F7F7FD0
:1054E8007F7F7F7F7F7F7F7F7F7F7F7F7F7F7F7FC4
:1054F8007F808080808080808080808080808080A5
:1055080080808080808080807F7F7F7F7F7F7F7F9B
:105518007F7F7F7F7F7F7F7F7F7F7F7F7F7F7F7F93
:10552800807F808080808080808080808080808074
:1055380080808080807F7F7F7F7F7F7F7F7F80806C
:105548008080808080808080808080808080808053
:10555800808080808080807F7F7F7F7F7F7F7F7F4C
:105568007F7F7F7F7F7F7F7F7F7F7F7F7F7F7F7F43
:105578007F807F8080808080808080808080808025
:1055880080807F807F807F7F7F7F7F7F7F7F807F1E
:105598008080808080808080808080808080808003
:1055A80080808080808080808080808080808080F3
:1055B80080807F7F7F7F7F7F7F7F7F7F7F7F7F7FF1
:1055C8007F7F7F7F7F7F7F7F7F7F7F7F7F7F7F7FE3
:1055D8007F7F7F7F7F7F7F7F807F807F80808080CD
:1055E80080808080808080808080808080808080B3
:1055F8008080807F807F807F807F7F7F7F7F7F7FAD
:105608007F7F7F7F7F7F807F808080808080808099
:1056180080807F8080807F807F7F807F807F807F89
:105628007F7F7F7F7F7F7F7F807F8080808080807B
:10563800808080808080808080808080807F807F64
:10564800807F807F807F7F7F808080807F807F8059
:105658007F807F807F808080808080808080808045
:10566800807F7F80808080807F807F807F807F8038
:105678007F7F7F7F807F80807F807F808080808029
:10568800808080808080808080808080807F807F14
:105698007F7F7F7F7F7F7F7F7F7F7F7F7F7F7F8011
:1056A8008080808080807F808080808080808080F3
:1056B80080808080808080808080808080808080E2
:1056C800808080808080807F7F7F7F7F7F7F7F7FDB
:1056D8007F7F7F7F7F7F7F80807F808080808080CA
:1056E8008080807F808080808080808080808080B3
:1056F8008080808080807F7F7F7F7F7F7F7F7F7FAC
:105708007F7F7F7F7F7F7F7F7F7F7F7F80807F809E
:10571800808080808080808080807F807F80807F84
:10572800807F80807F7F7F7F7F7F807F80807F7F7B
:105738007F7F7F7F7F7F7F7F7F7F7F7F7F7F80806F
:105748008080808080808080808080808080808051
:105758008080808080808080808080808080808041
:105768008080808080808080808080807F7F7F7F35
:105778007F7F7F7F7F7F7F7F7F7F7F7F7F7F7F8030
:105788007F807F8080808080808080808080808013
:105798008080808080808080808080807F807F7F04
:1057A8007F7F7F7F7F7F7F7F7F7F7F7F7F7F7F7F01
:1057B8007F7F7F7F7F7F7F7F7F7F808080808080EB
:1057C80080808080808080808080808080808080D1
:1057D800808080808080808080807F7F7F7F7F7FC7
:1057E8007F7F7F7F7F7F7F7F7F7F7F7F7F7F7F7FC1
:1057F8007F7F7F7F807F807F7F7F7F7F7F7F7F7FAF
:105808007F7F7F7F7F7F7F7F7F7F7F80808080809B
:105818008080808080808080808080808080808080
:10582800808080808080808080808080807F7F7F73
:105838007F7F7F7F7F7F7F7F7F7F7F7F7F7F7F7F70
:105848007F7F7F7F7F7F7F7F7F7F7F7F7F807F805E
:105858008080808080808080808080807F7F7F8043
:105868007F7F7F7F7F7F7F7F7F7F7F7F7F7F7F7F40
:105878007F807F807F808080808080808080808023
:105888008080808080808080808080808080807F11
:10589800807F807F808080808080807F7F7F7F7F07
:1058A8007F7F7F7F7F7F7F7F7F7F7F7F7F7F7F7F00
:1058B8007F7F7F7F807F80808080808080808080E5
:1058C80080808080808080808080808080808080D0
:1058D80080807F7F7F7F7F7F7F7F7F7F7F7F7F7FCE
:1058E8007F7F7F7F7F7F7F7F7F7F7F7F7F7F7F7FC0
:1058F8007F7F7F7F7F8080807F807F807F808080A8
:105908007F80807F807F807F8080808080807F8094
:105918007F807F807F808080807F807F807F808085
:10592800808080808080808080808080808080806F
:1059380080808080808080807F7F7F7F7F7F7F7F67
:105948007F7F7F7F7F7F7F7F7F7F7F7F807F80805C
:10595800808080808080808080808080808080803F
:105968008080808080808080808080807F7F7F7F33
:105978007F7F7F7F7F7F7F7F7F7F7F7F7F7F7F7F2F
:105988007F7F7F7F7F7F7F7F807F80808080808018
:1059980080808080808080808080808080808080FF
:1059A800808080808080807F7F7F7F7F7F7F7F7FF8
:1059B8007F7F7F7F7F7F7F7F7F7F7F7F7F7F7F7FEF
:1059C8007F808080808080808080808080808080D0
:1059D80080808080808080808080807F807F7F7FC3
:1059E8007F7F7F7F7F7F7F7F7F7F7F7F7F7F7F7FBF
:1059F8007F7F7F7F7F7F80808080808080808080A5
:105A0800808080808080808080808080808080808E
:105A18007F807F807F7F7F7F7F7F7F7F7F7F7F7F8C
:105A28007F7F7F7F7F7F7F7F7F7F7F7F7F7F7F7F7E
:105A38007F80807F807F807F807F8080807F7F8065
:105A48007F807F7F7F7F7F7F7F7F7F7F7F7F80805B
:105A5800808080808080808080808080808080803E
:105A680080808080808080808080808080807F802F
:105A78007F807F7F7F7F7F7F7F7F7F7F7F7F7F7F2D
:105A88007F7F7F7F7F7F7F7F7F7F7F807F8080801A
:105A98008080808080808080807F807F8080808000
:105AA80080807F80808080808080808080808080EF
:105AB80080808080808080808080808080808080DE
:105AC80080808080808080808080808080808080CE
